:020000040800F2
:1000000070060020890100082F0B0008BD0A0008B7
:100010002D0B00088F020008950E0008000000005C
:100020000000000000000000000000002F0E00088B
:1000300091020008000000002D0E0008310E00089B
:10004000A3010008A3010008A3010008A301000800
:10005000A3010008A3010008A3010008A3010008F0
:10006000A3010008A3010008A3010008A3010008E0
:10007000A3010008A3010008A3010008A3010008D0
:10008000A3010008A3010008A3010008A3010008C0
:10009000A3010008A3010008A3010008A3010008B0
:1000A000A3010008A3010008A3010008A3010008A0
:1000B000A3010008A3010008A3010008A301000890
:1000C000A3010008A3010008A3010008A301000880
:1000D000A3010008A3010008A3010008A301000870
:1000E000A3010008A3010008A301000800F002F822
:1000F00000F03AF80AA090E8000C82448344AAF188
:100100000107DA4501D100F02FF8AFF2090EBAE885
:100110000F0013F0010F18BFFB1A43F0010318473B
:100120002C1A00004C1A0000103A24BF78C878C17D
:10013000FAD8520724BF30C830C144BF04680C60ED
:10014000704700000023002400250026103A28BF35
:1001500078C1FBD8520728BF30C148BF0B60704739
:100160001FB51FBD10B510BD00F058F81146FFF7C0
:10017000F7FF00F0D9FE00F076F803B4FFF7F2FFC6
:1001800003BC00F07DF8000009488047094800479B
:10019000FEE7FEE7FEE7FEE7FEE7FEE7FEE7FEE737
:1001A000FEE7FEE704480549054A064B7047000094
:1001B000930E0008ED00000870000020700600207B
:1001C00070020020700200204FF0000200B51346BC
:1001D00094469646203922BFA0E80C50A0E80C5067
:1001E000B1F12001BFF4F7AF090728BFA0E80C5018
:1001F00048BF0CC05DF804EB890028BF40F8042B11
:1002000008BF704748BF20F8022B11F0804F18BF7D
:1002100000F8012B7047704770477047754600F033
:100220002BF8AE4605006946534620F00700854688
:1002300018B020B5FFF7B6FFBDE820404FF000062C
:100240004FF000074FF000084FF0000B21F00701BE
:10025000AC46ACE8C009ACE8C009ACE8C009ACE801
:10026000C0098D46704710B50446AFF300802046A4
:10027000BDE81040FFF781BF004870471000002024
:1002800001491820ABBEFEE7260002007047FEE7DA
:100290007047000070B5044600F020F90546601C68
:1002A00002D004480078044400F018F9401BA04232
:1002B000FAD370BD0000002070B54FF0E02300219C
:1002C0005C6900EBC0009A69C50098699042FCD057
:1002D00002D2A2EB000202E0A4EB00063244114479
:1002E0000246A942F1D370BD2DE9F84FDFF8B8916D
:1002F0000024A9F1040B23460F2709F1040AABF1EE
:10030000040EC9E00125A5402A40AA427DD1674ECE
:10031000D1F804C0ACEB0608B44532D014DCBCF113
:10032000030F3AD009DCBCF1000F2AD0BCF1010F59
:100330001CD0BCF1020F31D11DE0BCF1110F17D060
:10034000BCF1120F2AD119E0B8F5881F19D006DCCC
:10035000B8F5803F15D0B8F5801F1FD111E0B8F572
:10036000001F0ED0B8F5041F18D10AE0CB6815E0C5
:10037000CB681B1D12E0CB6808330FE0CB680C3351
:100380000CE08B682BB1012B4FF0080303D04561C3
:1003900004E0042302E0056100E00023FF2A01D805
:1003A000064601E000F104064FEA840501D9A5F1F3
:1003B0002005D6F8008007FA05FC28EA0C0803FAA5
:1003C00005F548EA0508C6F800804D68ED0062D5DD
:1003D000374DAE6946F00106AE61AD6924F0030603
:1003E00005F001050095334D06EB050CDCF80850CF
:1003F000A607360F07FA06F825EA0805DFF8B880E1
:10040000404503D14FF0000817E044E0DFF8AC802E
:10041000404502D14FF001080FE0DFF8A4804045CD
:1004200002D14FF0020808E0DFF89880404502D181
:100430004FF0030801E04FF0040808FA06F848EA14
:100440000508CCF808804D68D9F80060ED024D46EB
:1004500001D5164300E096432E604D68DAF800603F
:10046000AD02554601D5164300E096432E604D6817
:10047000DBF80060AD035D4601D5164300E096430E
:100480002E604D68DEF80060ED03754601D5164319
:1004900000E096432E60641C0D682A46E5407FF418
:1004A00031AFBDE8F88F00000804014000001110D2
:1004B000001002400000014000080140000C014013
:1004C00000100140001401408068084000D0012065
:1004D00070470AB1016170470904FBE70148806871
:1004E0007047000000000020024881680278114433
:1004F0008160704700000020074810B5016841F096
:1005000010010160032000F067F80F2000F006F8EA
:1005100000F024F8002010BD0020024070B50D4D01
:1005200004464FF47A712878B1FBF0F00A49096863
:10053000B1FBF0F000F0AEFA48B9102C07D200225F
:100540002146501E00F028F800206C6070BD01208C
:1005500070BD0000000000200C0000200C4808B511
:10056000816941F001018161816901F0010100911E
:10057000C16941F08051C161C06900F080500090B4
:100580000448416821F0E06141F08061416008BDAC
:100590000010024000000140F0B40E4B1B680C46F6
:1005A000C3F30223C3F10705042D00D90425191D47
:1005B000072901D2002300E0DB1E012606FA05F11F
:1005C000491E214099409E40761E16403143F0BCA2
:1005D00000F061BC0CED00E0064900F0070208687D
:1005E0004FF6FF03184040EA0220034A1043086018
:1005F000704700000CED00E00000FA052DE9F0471F
:100600000F46050061D0434E306800F00700B84245
:1006100009D2306820F0070038433060306800F0BD
:100620000700B84251D128683B4C810712D54007DA
:1006300003D5606840F4E06060602878000703D567
:10064000606840F4605060606068A96820F0F00065
:10065000084360602878C00728D06868012810D057
:100660002168022810D0890700292EDA616821F05C
:10067000030101436160FFF731FF804641F2883991
:100680000DE021688903EFE78901EDE7FFF726FF19
:10069000A0EB0801494502D90320BDE8F087606856
:1006A000696800F00C00B0EB810FEFD1306800F00A
:1006B0000700B8420BD9306820F00700384330609B
:1006C000306800F00700B84201D00120E5E7287843
:1006D000400705D56068E96820F4E0600843606081
:1006E0002878000706D56068296920F4605040EA40
:1006F000C100606000F018F86168084AC1F3031196
:10070000515CC8400649086006480068FFF706FFCC
:100710000020C2E700200240001002403A1B0008FF
:100720000C000020040000200E4A51680E4801F021
:100730000C03042B11D0082B0FD10C48C1F38343B9
:10074000C903C05C0AD55168084AC1F34041921EF2
:10075000515C054A5043B0FBF1F0704704494843EF
:10076000704700000010024000127A002A1B0008A7
:1007700000093D002DE9F84F040070D02078C04DED
:10078000C00749D06868C0F38100012807D06868B5
:10079000C0F38100022809D16868C00306D5286823
:1007A000800339D560680028E7D035E06068B0F58F
:1007B000803F0BD010B1B0F5A02F11D0286820F4E5
:1007C00080302860286820F4802002E0286840F407
:1007D00080302860606890B1FFF780FE06460AE02E
:1007E000286840F480202860F0E700BFFFF776FE1D
:1007F000801B642873D828688003F7D50CE0FFF7C6
:100800006DFE064605E000BFFFF768FE801B64280A
:10081000F0D828688003F7D420789A4E80074FF0EC
:1008200001094FF0000839D5686810F00C0F07D0A7
:100830006868C0F38100022809D16868C00306D443
:100840002868800714D52069012808D110E02069A4
:10085000B0B1C6F80090FFF741FE074605E00AE197
:10086000FFF73CFEC01B0228C4D828688007F7D5D4
:100870002868616920F0F80040EAC10028600DE0B6
:10088000C6F80080FFF72AFE074604E0FFF726FEC1
:10089000C01B022823D828688007F7D420780007D7
:1008A0002CD57948A169D9B1C0F80090FFF716FEA0
:1008B000074604E0FFF712FEC01B02280FD8686A43
:1008C0008007F7D571484FF4FA510068B0FBF1F09A
:1008D000009000BF0098411E0091FAD20EE080E027
:1008E000C0F80080FFF7FAFD074604E0FFF7F6FDC9
:1008F000C01B022875D8686A8007F7D420784007A3
:1009000060D5E8690027C00008D4E86940F080504D
:10091000E861E869012700F0805000905C480168B8
:10092000C90513D40168834641F480710160FFF763
:10093000D5FD824606E000BFFFF7D0FDA0EB0A0020
:1009400064284ED8DBF80000C005F5D5E068012822
:100950000AD008B1052813D0286A20F001002862C7
:10096000286A20F0040002E0286A40F001002862B2
:10097000E06841F2883B98B1FFF7B0FD82460BE09A
:10098000286A40F004002862EEE700BFFFF7A6FDEA
:10099000A0EB0A0159455AD8286A8007F6D50CE021
:1009A000FFF79CFD824605E0FFF798FDA0EB0A01EA
:1009B00059454CD8286A8007F6D41FB1E86920F061
:1009C0008050E861E06988B36968C1F38101022958
:1009D00044D00228C6F8608004D0FFF77FFD0446AB
:1009E00038E034E0FFF77AFD074604E0FFF776FDD4
:1009F000C01B02282BD828688001F7D4206AB0F5E4
:100A0000803F05D16868A16820F400300843686021
:100A1000D4E908010843696821F474110843686047
:100A2000C6F86090FFF75AFD044606E025E000BFD7
:100A3000FFF754FD001B022809D828688001F7D56C
:100A40001BE000BFFFF74AFD001B022802D903206C
:100A5000BDE8F88F28688001F4D40EE00128F7D0B3
:100A60006868226A00F48031914204D1616A00F41E
:100A70007010884201D00120EAE70020E8E700007A
:100A80000010024000004242800442420C0000205C
:100A90000070004010B5401EB0F1807F01D30120EE
:100AA00010BD4FF0E02460610F21601700F0F3F9F2
:100AB0000020A06107202061002010BDFEE700009B
:100AC00030B585B000241748009401940294039433
:100AD000816941F020018161816901F02001049167
:100AE000816941F00801816180690F4D00F00800C3
:100AF000049000224FF440512846FFF7EAFC0122FF
:100B000051022846FFF7E5FC4FF4485000900120C1
:100B1000CDE901040220039069462846FFF7E4FB73
:100B200005B030BD00100240000C0140FEE7FEE7BA
:100B300070B500240021204600F0DDF800250020DB
:100B400000F063F96D1CEDB2802DF8D3641CE4B2A3
:100B5000082CEFD370BD000010B5064C0122110324
:100B60002046FFF7B6FC20460122BDE810405103A5
:100B7000FFF7AFBC000C01402DE9F047144E0024F4
:100B800007464FF080084FF40059B51428FA04F2D4
:100B90003A4049463046FFF79CFC01222946304640
:100BA000FFF797FC002229463046FFF792FC641CB1
:100BB000E4B2082CEAD3012229463046FFF789FC2B
:100BC00029463046BDE8F0470022FFF782BC00000E
:100BD000000C014070B501220B4D540321462846FC
:100BE000FFF777FC0122160331462846FFF771FC18
:100BF000002221462846FFF76CFC31462846BDE816
:100C000070400022FFF765BC000C014070B50A4D32
:100C10004FF40054002221462846FFF75AFC0122D7
:100C200011032846FFF755FC21462846BDE87040D1
:100C30000122FFF74EBC0000000C014010B500205F
:100C40004FF47A720021491C9142FCD3401C90421F
:100C5000F8D3FFF781FFAE2000F0C6F8D52000F0F2
:100C6000C3F8802000F0C0F8A82000F0BDF83F20B5
:100C700000F0BAF8D32000F0B7F8002000F0B4F884
:100C8000402000F0B1F8A12000F0AEF8C82000F03C
:100C9000ABF8DA2000F0A8F8122000F0A5F88120C7
:100CA00000F0A2F8CF2000F09FF8D92000F09CF8C7
:100CB000F12000F099F8DB2000F096F8302000F0E9
:100CC00093F8A42000F090F8A62000F08DF88D2075
:100CD00000F08AF8142000F087F8AF2000F084F8C4
:100CE000BDE81040FFF724BF0246012000E050435A
:100CF000491EFCD2704710B50C4640F0B00000F021
:100D000073F8102040EA141000F06EF804F00F00A1
:100D1000BDE8104000F068B82DE9F0410746CE006C
:100D20004000083E801E15464FF0FF38F1B2C0B2B9
:100D3000FFF7E1FF1148002400EB05152819A0F585
:100D4000805090F8000E00F060F8641CE4B2082CAB
:100D5000F4D308EB4700F1B2C0B2FFF7CCFF002498
:100D60002819A0F5805090F8080E00F04EF8641C89
:100D7000E4B2082CF4D3BDE8F08100003815000877
:100D80002DE9F04700241D461646884681460A276D
:100D900013E0291B0A20491EFFF7A6FFB6FBF0F05F
:100DA000B0FBF7F107FB110208EB0400C1B24846A3
:100DB0003032FFF7B1FF641CE4B2AC42E9D3BDE8C6
:100DC000F0872DE9F04115460E460746002406E05F
:100DD0003019C1B23846FFF79FFF641CE4B22A5DA8
:100DE000002AF5D1BDE8F08110B50446FFF7F2FE08
:100DF0007820FFF7C1FE0020FFF7BEFE2046FFF778
:100E0000BBFEBDE81040FFF701BF10B50446FFF779
:100E1000E1FE7820FFF7B0FE4020FFF7ADFE204650
:100E2000FFF7AAFEBDE81040FFF7F0BE704770471D
:100E3000FFF75ABB30B58FB028216846FFF7C4F9D9
:100E400014210AA8FFF7C0F901210804CDE9001018
:100E50000024029402250491CDE907504FF4E010DC
:100E600009906846FFF786FC08B172B6FEE70F20CE
:100E7000CDE90A054FF48060CDE90C4002210AA8B3
:100E80000E94FFF7BBFB002801D072B6FEE70FB04F
:100E900030BD7047FEE70907090E002804DB00F1AA
:100EA000E02080F80014704700F00F0000F1E0200F
:100EB00080F8141D7047000010B500F069F8CC20D0
:100EC00000F0DCF8442000F0D9F840F2EE20FFF703
:100ED000E1F900F05DF8CC2000F0D0F8BE2000F081
:100EE000CDF800F0ABF8044600F0A8F804EB0020C1
:100EF00080B21F21B1EBD02F09D1C043401C80B27A
:100F000000F026F90022074B00F036F905E000F06A
:100F10001FF96FF0030200F0C9FABDE8104000F0BD
:100F2000DDB800000000B0BFFFF7E6FAFFF782FF70
:100F3000FFF7C6FDFFF782FE4FF47A75FFF7BCFF9F
:100F4000044609A203210120FFF73BFF204600F0E1
:100F500011FA0246062303210220FFF711FF28465B
:100F6000FFF798F9EAE7000068656C6C6F00000015
:100F70001FB501204102CDE900100290032003902B
:100F800069460248FFF7B0F91FBD0000000C0140A0
:100F900070B586B0002002901648816941F00801C2
:100FA00081618069144D00F0080004900120440222
:100FB000CDE900400320039069462846FFF794F9E5
:100FC000002221462846FFF784FA4FF4FA7630468D
:100FD000FFF772F9012221462846FFF77AFA3220FC
:100FE000FFF76AF900F03AF83046FFF765F906B006
:100FF00070BD000000100240000C014070B5FFF70A
:10100000B7FF0D4D4FF40074002221462846FFF72C
:1010100060FA0220FFF750F900F020F80C20FFF7EB
:101020004BF921462846FFF74FFA04463220FFF7D6
:1010300043F9204670BD0000000C014070B500254A
:101040005FF00104FFF7DAFFC001641C40EA5500BD
:10105000E4B2C5B2082CF5D9284670BD1FB50020F2
:10106000019002904FF400700090032003906946B5
:101070000148FFF739F91FBD000C014070B5044667
:101080000025E00700D0012000F006F86D1C640880
:10109000EDB2082DF5D370BD10B50446FFF768FF1B
:1010A0000D484FF400714FF000025CB1FFF711FAE8
:1010B0000220FFF701F9FFF7D1FF3C20BDE8104007
:1010C000FFF7FAB8FFF705FA3C20FFF7F5F8FFF74E
:1010D000C5FF0220F2E70000000C014021F00042B1
:1010E000A2F16052B2F5801F01F0004328BFD2F197
:1010F0007F6C0BD95FEA001C43EAC20242EB5070DE
:1011000018BF704728BF20F001007047B2F5801F5C
:10111000BCBF184670474FEA410C1CF5001F02D2B5
:10112000084600F08CB970B500F0D0F800000089D6
:10113000FFF7F6BF4FF00040A0F5800070470000B9
:1011400002494FF0000000F07FB900BF0000F87FB7
:10115000B0FA80F310FA03F10AD0C3F11D0303F5CE
:1011600080634FEA41504FEA035202EBD1217047AE
:101170004FF0000070470000DFF848C170B51CEA6E
:10118000111E1EBF1CEA13159EEA0C0F95EA0C0FE8
:1011900000F06F8081EA030423EA4C134EEAD47E08
:1011A00021EA4C1141F4801143F48013AE44A1FBB9
:1011B000024CA0FB0365AEF17F7E361955EB0C05A2
:1011C000A1FB034C4CF10003A0FB021C16EB0C0628
:1011D000654153F10003094218BF46F0010613F4BC
:1011E000007F0BD14FEA03314FEA0530340341EA67
:1011F000155140EA16506FF003020AE04FEAC3218E
:101200004FEAC520F40241EA555140EA56506FF0CA
:10121000020202EB2E4201EB025585EACE710AD0A2
:101220005FEA440C18BF24F0004450F1000041F183
:10123000000120EAD47040F2FE7C624500D270BD0D
:10124000A84214BF4FF080444FF04044002E08BF26
:101250000024BEF1806FA8BFA1F1C041BDE870407D
:1012600080F282804FF0000001F1C04101F00041A6
:1012700070479EEA0C0F0CEA131518BF95EA0C0F85
:1012800006D04FF0000081EA030E0EF0004170BD61
:1012900000F01CF88900013E00F007B800F009B822
:1012A0004FEA430C5FEA5C5C08D081EA030100F07E
:1012B0005BB84FEA410C5FEA5C5CF6D14FF000008E
:1012C000014970470000FF070000F87F0EF1020E91
:1012D0002EF0030E5EF8046B364205D4012A43EB70
:1012E000030515F5001F12D8012841EB010C1CF570
:1012F000001F0CD80ED14FEAD17C15F5001F0CEB66
:101300004C0C0CF1020C08BF4CEBD37C04E04FF00A
:10131000080C01E04FEAD37C0CEB4C0526FA05F6ED
:1013200006F00706B6F1040C06D20EEB860CBDE8FB
:1013300070404CF0010C6047DFE80CF0090B020232
:101340004FF000414FF00000A1F5002170BD19469B
:101350001046012851EB010418BFD4F5001484BFD6
:10136000002001F0004170BD0808A0F500114FEA0F
:1013700031017047C10DD1F19E0206DB4FEA002317
:1013800043F0004323FA02F07047004207D54FEACA
:101390004001B1F1FE4F02D24FF00000704710B58E
:1013A00000F007F849922480002070476FEA20007F
:1013B00070470EF1020E2EF0030E5EF8044B24422D
:1013C00004D44FEA4102B2F17F4F11D84FEA4003F3
:1013D000B3F17F4F0CD80ED14FEAD07CB2F17F4FE2
:1013E0000CEB4C0C0CF1020C08BF4CEBD17C04E074
:1013F0004FF0080C01E04FEAD17C0CEB4C0324FACF
:1014000003F404F00704B4F1040C06D20EEB840CD0
:10141000BDE810404CF0010C6047DFE80CF0070815
:1014200002024FF00040A0F5800010BD08464200C7
:1014300018BFD2F1807288BF00F0004010BDFF21BC
:1014400041EAD050C00570470CF00F03092B08BFCC
:10145000082000F059800A2B0BD0082B18BF7047CA
:1014600008BF1CF0400F0AD04FF000004FF0000101
:1014700070471CF0400F18BF4FF0004070471CF041
:10148000100F08D020F0704300F07F4242EAD301F1
:101490004FEA4370704700F0604021F07F4242EA1B
:1014A000000201F07F4040EA727070474FF0FF0C7D
:1014B0004CF4E06C1CEA11531CBF9CEA030C9445ED
:1014C000C2BFDA4201EB02517047002B0DD0BCF1D4
:1014D000000F0FD0002A01F00041A4BF41F0E0410D
:1014E00041F07F614FF00000704701F000414FF084
:1014F0000000704750EA01334FF09B0C18BF4CF0CE
:10150000806C7FF41DAE70471CF4801F11D01CF45A
:10151000E02F03D06FEACC31490070474FF04050C4
:10152000EFF3008222F0704242EA000282F3008868
:1015300070474FF0000070470000000000000000FE
:101540000000000000000000000000F800000000A3
:10155000000000333000000000100C06100C0600E4
:10156000000000000000000040C07840C07840004B
:10157000043F04043F040400007088FC08300000AD
:10158000001820FF211E0000F008F000E018000005
:1015900000211C031E211E0000F0088870000000BE
:1015A0001E2123241927211010160E000000000010
:1015B0000000000000000000000000E0180402002D
:1015C000000000071820400000020418E00000009E
:1015D0000040201807000000404080F0804040009C
:1015E0000202010F01020200000000F000000000F2
:1015F0000101011F010101000000000000000000C6
:1016000080B070000000000000000000000000003A
:1016100000010101010101010000000000000000C3
:10162000003030000000000000000000806018045E
:10163000006018060100000000E010080810E0003B
:10164000000F102020100F00001010F80000000004
:101650000020203F2020000000700808088870004B
:1016600000302824222130000030088888483000CB
:101670000018202020110E000000C02010F80000EB
:1016800000070424243F240000F808888808080084
:101690000019212020110E0000E010888818000099
:1016A000000F112020110E0000380808C83808006B
:1016B0000000003F000000000070880808887000EB
:1016C000001C222121221C0000E010080810E0006C
:1016D0000000312222110F00000000C0C0000000F5
:1016E000000000303000000000000080000000001A
:1016F0000000806000000000000080402010080012
:1017000000010204081020004040404040404000DA
:1017100004040404040404000008102040800000B5
:101720000020100804020100007048080808F000BA
:101730000000003036010000C030C828E810E0008A
:101740000718272423140B000000C038E000000015
:10175000203C23020227382008F88888887000007F
:10176000203F202020110E00C03008080808380053
:10177000071820202010080008F808080810E000CA
:10178000203F202020100F0008F88888E80810006B
:10179000203F20202320180008F88888E80810003F
:1017A000203F200003000000C03008080838000077
:1017B00007182020221E020008F808000008F80878
:1017C000203F210101213F20000808F808080000FF
:1017D0000020203F2020000000000808F808080032
:1017E000C08080807F00000008F888C028180800AA
:1017F000203F20012638200008F8080000000000E3
:10180000203F20202020300008F8F800F8F80800D9
:10181000203F003F003F200008F830C00008F808D3
:10182000203F200007183F00E01008080810E000E3
:101830000F10202020100F0008F808080808F000FA
:10184000203F210101010000E01008080810E0001D
:101850000F18242438504F0008F8888888887000B2
:10186000203F2000030C3020007088080808380052
:101870000038202121221C00180808F80808180048
:101880000000203F2000000008F808000008F808C9
:10189000001F202020201F000878880000C838087A
:1018A000000007380E010000F80800F80008F800F2
:1018B000033C0700073C030008186880806818088C
:1018C00020302C03032C30200838C800C83808000A
:1018D0000000203F2000000010080808C838080059
:1018E0002038262120201800000000FE02020200FD
:1018F0000000007F40404000000C30C000000000AD
:10190000000000010638C00000020202FE000000D4
:10191000004040407F00000000000402020204007A
:1019200000000000000000000000000000000000B7
:10193000808080808080808000020204000000009F
:101940000000000000000000000080808080000097
:101950000019242222223F2008F800808000000085
:10196000003F112020110E00000000808080000048
:10197000000E112020201100000000808088F80057
:10198000000E112020103F20000080808080000089
:10199000001F222222221300008080F088888818ED
:1019A0000020203F202000000000808080808000F8
:1019B000006B94949493600008F80080808000008D
:1019C000203F210000203F20008098980000000068
:1019D0000020203F20200000000000809898000098
:1019E00000C08080807F000008F8000080808000B8
:1019F000203F24022D302000000808F800000000DD
:101A00000020203F20200000808080808080800097
:101A1000203F20003F20003F808000808080000029
:101A2000203F210000203F200000808080800000B7
:101A3000001F202020201F008080008080000000E8
:101A400080FFA12020110E00000000808080800017
:101A5000000E112020A0FF80808080008080800008
:101A600020203F2120000100000080808080800035
:101A70000033242424241900008080E080800000AA
:101A80000000001F202000008080000000808000F7
:101A9000001F202020103F20808080000080808058
:101AA00000010E30080601008080008000808080E8
:101AB0000F300C030C300F0000808000808080000D
:101AC0000020312E0E312000808080000080808038
:101AD00080818E70180601000080808080808000E8
:101AE0000021302C2221300000000000807C020206
:101AF00000000000003F404000000000FF00000028
:101B000000000000FF0000000002027C80000000D6
:101B10000040403F000000000006010102020404F2
:101B20000000000000000000010202030405060797
:101B300008090A0B0C0D0E0F101000000000000029
:101B40000000010203040607080900006C1B0008DE
:101B50000000002010000000280100087C1B000885
:101B60001000002060060000440100080100000091
:0C1B700010000000000000000024F40041
:04000005080000ED02
:00000001FF
